:1000000010C018C016C015C014C013C012C011C053
:1000100010C00FC00EC00DC00CC00BC00AC009C07C
:1000200008C011241FBECFE5D2E0DEBFCDBF32D065
:1000300043C0E6CF1F920F920FB60F9211242F9359
:100040003F934F935F938F9382B78823C9F012BE7B
:10005000C69AC7982FEF34E34CE02150304040401F
:10006000E1F700C00000C79A2FEF34E34CE02150C5
:1000700030404040E1F700C00000815051F7C69881
:100080008F915F914F913F912F910F900FBE0F90E5
:100090001F90189580EC87BB81E888BB11BA84E07B
:1000A00082BB86E083BF12BE80E48BBF80E285BF47
:0C00B000789488950000FDCFF894FFCFF5
:00000001FF
