:100000000C942A000C9434000C9434000C943400AA
:100010000C9434000C9434000C9434000C94340090
:100020000C9434000C9434000C9434000C94340080
:100030000C9434000C9434000C9434000C94340070
:100040000C9434000C9434000C9434000C94340060
:100050000C94340011241FBECFE5D4E0DEBFCDBF29
:100060000E943C000C946C000C94000091980000DD
:10007000919A000091980895FF920F931F9384E541
:100080008DBF84E08EBF8FEF81BB939A949A929A32
:100090009298909A000000000000909884BB83E042
:1000A00085BB0E94360082E885BB94980000949A34
:1000B0001FEF01E014BB05BB0E94360014BA9398F1
:1000C0000000F3B2939A14BB15BA0E943600F5BA39
:0C00D00094980000949AEECFF894FFCFB3
:00000001FF
